{"abi":[{"type":"constructor","inputs":[],"stateMutability":"nonpayable"},{"type":"receive","stateMutability":"payable"},{"type":"function","name":"BALLOT_TYPEHASH","inputs":[],"outputs":[{"name":"","type":"bytes32","internalType":"bytes32"}],"stateMutability":"view"},{"type":"function","name":"CLOCK_MODE","inputs":[],"outputs":[{"name":"","type":"string","internalType":"string"}],"stateMutability":"view"},{"type":"function","name":"COUNTING_MODE","inputs":[],"outputs":[{"name":"","type":"string","internalType":"string"}],"stateMutability":"pure"},{"type":"function","name":"EXTENDED_BALLOT_TYPEHASH","inputs":[],"outputs":[{"name":"","type":"bytes32","internalType":"bytes32"}],"stateMutability":"view"},{"type":"function","name":"UPGRADE_INTERFACE_VERSION","inputs":[],"outputs":[{"name":"","type":"string","internalType":"string"}],"stateMutability":"view"},{"type":"function","name":"cancel","inputs":[{"name":"proposalId","type":"uint256","internalType":"uint256"}],"outputs":[],"stateMutability":"nonpayable"},{"type":"function","name":"cancel","inputs":[{"name":"targets","type":"address[]","internalType":"address[]"},{"name":"values","type":"uint256[]","internalType":"uint256[]"},{"name":"calldatas","type":"bytes[]","internalType":"bytes[]"},{"name":"descriptionHash","type":"bytes32","internalType":"bytes32"}],"outputs":[{"name":"","type":"uint256","internalType":"uint256"}],"stateMutability":"nonpayable"},{"type":"function","name":"castVote","inputs":[{"name":"proposalId","type":"uint256","internalType":"uint256"},{"name":"support","type":"uint8","internalType":"uint8"}],"outputs":[{"name":"","type":"uint256","internalType":"uint256"}],"stateMutability":"nonpayable"},{"type":"function","name":"castVoteBySig","inputs":[{"name":"proposalId","type":"uint256","internalType":"uint256"},{"name":"support","type":"uint8","internalType":"uint8"},{"name":"voter","type":"address","internalType":"address"},{"name":"signature","type":"bytes","internalType":"bytes"}],"outputs":[{"name":"","type":"uint256","internalType":"uint256"}],"stateMutability":"nonpayable"},{"type":"function","name":"castVoteWithReason","inputs":[{"name":"proposalId","type":"uint256","internalType":"uint256"},{"name":"support","type":"uint8","internalType":"uint8"},{"name":"reason","type":"string","internalType":"string"}],"outputs":[{"name":"","type":"uint256","internalType":"uint256"}],"stateMutability":"nonpayable"},{"type":"function","name":"castVoteWithReasonAndParams","inputs":[{"name":"proposalId","type":"uint256","internalType":"uint256"},{"name":"support","type":"uint8","internalType":"uint8"},{"name":"reason","type":"string","internalType":"string"},{"name":"params","type":"bytes","internalType":"bytes"}],"outputs":[{"name":"","type":"uint256","internalType":"uint256"}],"stateMutability":"nonpayable"},{"type":"function","name":"castVoteWithReasonAndParamsBySig","inputs":[{"name":"proposalId","type":"uint256","internalType":"uint256"},{"name":"support","type":"uint8","internalType":"uint8"},{"name":"voter","type":"address","internalType":"address"},{"name":"reason","type":"string","internalType":"string"},{"name":"params","type":"bytes","internalType":"bytes"},{"name":"signature","type":"bytes","internalType":"bytes"}],"outputs":[{"name":"","type":"uint256","internalType":"uint256"}],"stateMutability":"nonpayable"},{"type":"function","name":"clock","inputs":[],"outputs":[{"name":"","type":"uint48","internalType":"uint48"}],"stateMutability":"view"},{"type":"function","name":"eip712Domain","inputs":[],"outputs":[{"name":"fields","type":"bytes1","internalType":"bytes1"},{"name":"name","type":"string","internalType":"string"},{"name":"version","type":"string","internalType":"string"},{"name":"chainId","type":"uint256","internalType":"uint256"},{"name":"verifyingContract","type":"address","internalType":"address"},{"name":"salt","type":"bytes32","internalType":"bytes32"},{"name":"extensions","type":"uint256[]","internalType":"uint256[]"}],"stateMutability":"view"},{"type":"function","name":"execute","inputs":[{"name":"targets","type":"address[]","internalType":"address[]"},{"name":"values","type":"uint256[]","internalType":"uint256[]"},{"name":"calldatas","type":"bytes[]","internalType":"bytes[]"},{"name":"descriptionHash","type":"bytes32","internalType":"bytes32"}],"outputs":[{"name":"","type":"uint256","internalType":"uint256"}],"stateMutability":"payable"},{"type":"function","name":"execute","inputs":[{"name":"proposalId","type":"uint256","internalType":"uint256"}],"outputs":[],"stateMutability":"payable"},{"type":"function","name":"getVotes","inputs":[{"name":"account","type":"address","internalType":"address"},{"name":"timepoint","type":"uint256","internalType":"uint256"}],"outputs":[{"name":"","type":"uint256","internalType":"uint256"}],"stateMutability":"view"},{"type":"function","name":"getVotesWithParams","inputs":[{"name":"account","type":"address","internalType":"address"},{"name":"timepoint","type":"uint256","internalType":"uint256"},{"name":"params","type":"bytes","internalType":"bytes"}],"outputs":[{"name":"","type":"uint256","internalType":"uint256"}],"stateMutability":"view"},{"type":"function","name":"hasVoted","inputs":[{"name":"proposalId","type":"uint256","internalType":"uint256"},{"name":"account","type":"address","internalType":"address"}],"outputs":[{"name":"","type":"bool","internalType":"bool"}],"stateMutability":"view"},{"type":"function","name":"hashProposal","inputs":[{"name":"targets","type":"address[]","internalType":"address[]"},{"name":"values","type":"uint256[]","internalType":"uint256[]"},{"name":"calldatas","type":"bytes[]","internalType":"bytes[]"},{"name":"descriptionHash","type":"bytes32","internalType":"bytes32"}],"outputs":[{"name":"","type":"uint256","internalType":"uint256"}],"stateMutability":"pure"},{"type":"function","name":"initialize","inputs":[{"name":"_token","type":"address","internalType":"contract IVotes"},{"name":"_timelock","type":"address","internalType":"contract TimelockControllerUpgradeable"}],"outputs":[],"stateMutability":"nonpayable"},{"type":"function","name":"name","inputs":[],"outputs":[{"name":"","type":"string","internalType":"string"}],"stateMutability":"view"},{"type":"function","name":"nonces","inputs":[{"name":"owner","type":"address","internalType":"address"}],"outputs":[{"name":"","type":"uint256","internalType":"uint256"}],"stateMutability":"view"},{"type":"function","name":"onERC1155BatchReceived","inputs":[{"name":"","type":"address","internalType":"address"},{"name":"","type":"address","internalType":"address"},{"name":"","type":"uint256[]","internalType":"uint256[]"},{"name":"","type":"uint256[]","internalType":"uint256[]"},{"name":"","type":"bytes","internalType":"bytes"}],"outputs":[{"name":"","type":"bytes4","internalType":"bytes4"}],"stateMutability":"nonpayable"},{"type":"function","name":"onERC1155Received","inputs":[{"name":"","type":"address","internalType":"address"},{"name":"","type":"address","internalType":"address"},{"name":"","type":"uint256","internalType":"uint256"},{"name":"","type":"uint256","internalType":"uint256"},{"name":"","type":"bytes","internalType":"bytes"}],"outputs":[{"name":"","type":"bytes4","internalType":"bytes4"}],"stateMutability":"nonpayable"},{"type":"function","name":"onERC721Received","inputs":[{"name":"","type":"address","internalType":"address"},{"name":"","type":"address","internalType":"address"},{"name":"","type":"uint256","internalType":"uint256"},{"name":"","type":"bytes","internalType":"bytes"}],"outputs":[{"name":"","type":"bytes4","internalType":"bytes4"}],"stateMutability":"nonpayable"},{"type":"function","name":"owner","inputs":[],"outputs":[{"name":"","type":"address","internalType":"address"}],"stateMutability":"view"},{"type":"function","name":"proposalCount","inputs":[],"outputs":[{"name":"","type":"uint256","internalType":"uint256"}],"stateMutability":"view"},{"type":"function","name":"proposalDeadline","inputs":[{"name":"proposalId","type":"uint256","internalType":"uint256"}],"outputs":[{"name":"","type":"uint256","internalType":"uint256"}],"stateMutability":"view"},{"type":"function","name":"proposalDetails","inputs":[{"name":"proposalId","type":"uint256","internalType":"uint256"}],"outputs":[{"name":"","type":"address[]","internalType":"address[]"},{"name":"","type":"uint256[]","internalType":"uint256[]"},{"name":"","type":"bytes[]","internalType":"bytes[]"},{"name":"","type":"bytes32","internalType":"bytes32"}],"stateMutability":"view"},{"type":"function","name":"proposalDetailsAt","inputs":[{"name":"index","type":"uint256","internalType":"uint256"}],"outputs":[{"name":"","type":"uint256","internalType":"uint256"},{"name":"","type":"address[]","internalType":"address[]"},{"name":"","type":"uint256[]","internalType":"uint256[]"},{"name":"","type":"bytes[]","internalType":"bytes[]"},{"name":"","type":"bytes32","internalType":"bytes32"}],"stateMutability":"view"},{"type":"function","name":"proposalEta","inputs":[{"name":"proposalId","type":"uint256","internalType":"uint256"}],"outputs":[{"name":"","type":"uint256","internalType":"uint256"}],"stateMutability":"view"},{"type":"function","name":"proposalNeedsQueuing","inputs":[{"name":"proposalId","type":"uint256","internalType":"uint256"}],"outputs":[{"name":"","type":"bool","internalType":"bool"}],"stateMutability":"view"},{"type":"function","name":"proposalProposer","inputs":[{"name":"proposalId","type":"uint256","internalType":"uint256"}],"outputs":[{"name":"","type":"address","internalType":"address"}],"stateMutability":"view"},{"type":"function","name":"proposalSnapshot","inputs":[{"name":"proposalId","type":"uint256","internalType":"uint256"}],"outputs":[{"name":"","type":"uint256","internalType":"uint256"}],"stateMutability":"view"},{"type":"function","name":"proposalThreshold","inputs":[],"outputs":[{"name":"","type":"uint256","internalType":"uint256"}],"stateMutability":"view"},{"type":"function","name":"proposalVotes","inputs":[{"name":"proposalId","type":"uint256","internalType":"uint256"}],"outputs":[{"name":"againstVotes","type":"uint256","internalType":"uint256"},{"name":"forVotes","type":"uint256","internalType":"uint256"},{"name":"abstainVotes","type":"uint256","internalType":"uint256"}],"stateMutability":"view"},{"type":"function","name":"propose","inputs":[{"name":"targets","type":"address[]","internalType":"address[]"},{"name":"values","type":"uint256[]","internalType":"uint256[]"},{"name":"calldatas","type":"bytes[]","internalType":"bytes[]"},{"name":"description","type":"string","internalType":"string"}],"outputs":[{"name":"","type":"uint256","internalType":"uint256"}],"stateMutability":"nonpayable"},{"type":"function","name":"proxiableUUID","inputs":[],"outputs":[{"name":"","type":"bytes32","internalType":"bytes32"}],"stateMutability":"view"},{"type":"function","name":"queue","inputs":[{"name":"targets","type":"address[]","internalType":"address[]"},{"name":"values","type":"uint256[]","internalType":"uint256[]"},{"name":"calldatas","type":"bytes[]","internalType":"bytes[]"},{"name":"descriptionHash","type":"bytes32","internalType":"bytes32"}],"outputs":[{"name":"","type":"uint256","internalType":"uint256"}],"stateMutability":"nonpayable"},{"type":"function","name":"queue","inputs":[{"name":"proposalId","type":"uint256","internalType":"uint256"}],"outputs":[],"stateMutability":"nonpayable"},{"type":"function","name":"quorum","inputs":[{"name":"timepoint","type":"uint256","internalType":"uint256"}],"outputs":[{"name":"","type":"uint256","internalType":"uint256"}],"stateMutability":"view"},{"type":"function","name":"quorumDenominator","inputs":[],"outputs":[{"name":"","type":"uint256","internalType":"uint256"}],"stateMutability":"view"},{"type":"function","name":"quorumNumerator","inputs":[{"name":"timepoint","type":"uint256","internalType":"uint256"}],"outputs":[{"name":"","type":"uint256","internalType":"uint256"}],"stateMutability":"view"},{"type":"function","name":"quorumNumerator","inputs":[],"outputs":[{"name":"","type":"uint256","internalType":"uint256"}],"stateMutability":"view"},{"type":"function","name":"relay","inputs":[{"name":"target","type":"address","internalType":"address"},{"name":"value","type":"uint256","internalType":"uint256"},{"name":"data","type":"bytes","internalType":"bytes"}],"outputs":[],"stateMutability":"payable"},{"type":"function","name":"renounceOwnership","inputs":[],"outputs":[],"stateMutability":"nonpayable"},{"type":"function","name":"setProposalThreshold","inputs":[{"name":"newProposalThreshold","type":"uint256","internalType":"uint256"}],"outputs":[],"stateMutability":"nonpayable"},{"type":"function","name":"setVotingDelay","inputs":[{"name":"newVotingDelay","type":"uint48","internalType":"uint48"}],"outputs":[],"stateMutability":"nonpayable"},{"type":"function","name":"setVotingPeriod","inputs":[{"name":"newVotingPeriod","type":"uint32","internalType":"uint32"}],"outputs":[],"stateMutability":"nonpayable"},{"type":"function","name":"state","inputs":[{"name":"proposalId","type":"uint256","internalType":"uint256"}],"outputs":[{"name":"","type":"uint8","internalType":"enum IGovernor.ProposalState"}],"stateMutability":"view"},{"type":"function","name":"supportsInterface","inputs":[{"name":"interfaceId","type":"bytes4","internalType":"bytes4"}],"outputs":[{"name":"","type":"bool","internalType":"bool"}],"stateMutability":"view"},{"type":"function","name":"timelock","inputs":[],"outputs":[{"name":"","type":"address","internalType":"address"}],"stateMutability":"view"},{"type":"function","name":"token","inputs":[],"outputs":[{"name":"","type":"address","internalType":"contract IERC5805"}],"stateMutability":"view"},{"type":"function","name":"transferOwnership","inputs":[{"name":"newOwner","type":"address","internalType":"address"}],"outputs":[],"stateMutability":"nonpayable"},{"type":"function","name":"updateQuorumNumerator","inputs":[{"name":"newQuorumNumerator","type":"uint256","internalType":"uint256"}],"outputs":[],"stateMutability":"nonpayable"},{"type":"function","name":"updateTimelock","inputs":[{"name":"newTimelock","type":"address","internalType":"contract TimelockControllerUpgradeable"}],"outputs":[],"stateMutability":"nonpayable"},{"type":"function","name":"upgradeToAndCall","inputs":[{"name":"newImplementation","type":"address","internalType":"address"},{"name":"data","type":"bytes","internalType":"bytes"}],"outputs":[],"stateMutability":"payable"},{"type":"function","name":"version","inputs":[],"outputs":[{"name":"","type":"string","internalType":"string"}],"stateMutability":"view"},{"type":"function","name":"votingDelay","inputs":[],"outputs":[{"name":"","type":"uint256","internalType":"uint256"}],"stateMutability":"view"},{"type":"function","name":"votingPeriod","inputs":[],"outputs":[{"name":"","type":"uint256","internalType":"uint256"}],"stateMutability":"view"},{"type":"event","name":"EIP712DomainChanged","inputs":[],"anonymous":false},{"type":"event","name":"Initialized","inputs":[{"name":"version","type":"uint64","indexed":false,"internalType":"uint64"}],"anonymous":false},{"type":"event","name":"OwnershipTransferred","inputs":[{"name":"previousOwner","type":"address","indexed":true,"internalType":"address"},{"name":"newOwner","type":"address","indexed":true,"internalType":"address"}],"anonymous":false},{"type":"event","name":"ProposalCanceled","inputs":[{"name":"proposalId","type":"uint256","indexed":false,"internalType":"uint256"}],"anonymous":false},{"type":"event","name":"ProposalCreated","inputs":[{"name":"proposalId","type":"uint256","indexed":false,"internalType":"uint256"},{"name":"proposer","type":"address","indexed":false,"internalType":"address"},{"name":"targets","type":"address[]","indexed":false,"internalType":"address[]"},{"name":"values","type":"uint256[]","indexed":false,"internalType":"uint256[]"},{"name":"signatures","type":"string[]","indexed":false,"internalType":"string[]"},{"name":"calldatas","type":"bytes[]","indexed":false,"internalType":"bytes[]"},{"name":"voteStart","type":"uint256","indexed":false,"internalType":"uint256"},{"name":"voteEnd","type":"uint256","indexed":false,"internalType":"uint256"},{"name":"description","type":"string","indexed":false,"internalType":"string"}],"anonymous":false},{"type":"event","name":"ProposalExecuted","inputs":[{"name":"proposalId","type":"uint256","indexed":false,"internalType":"uint256"}],"anonymous":false},{"type":"event","name":"ProposalQueued","inputs":[{"name":"proposalId","type":"uint256","indexed":false,"internalType":"uint256"},{"name":"etaSeconds","type":"uint256","indexed":false,"internalType":"uint256"}],"anonymous":false},{"type":"event","name":"ProposalThresholdSet","inputs":[{"name":"oldProposalThreshold","type":"uint256","indexed":false,"internalType":"uint256"},{"name":"newProposalThreshold","type":"uint256","indexed":false,"internalType":"uint256"}],"anonymous":false},{"type":"event","name":"QuorumNumeratorUpdated","inputs":[{"name":"oldQuorumNumerator","type":"uint256","indexed":false,"internalType":"uint256"},{"name":"newQuorumNumerator","type":"uint256","indexed":false,"internalType":"uint256"}],"anonymous":false},{"type":"event","name":"TimelockChange","inputs":[{"name":"oldTimelock","type":"address","indexed":false,"internalType":"address"},{"name":"newTimelock","type":"address","indexed":false,"internalType":"address"}],"anonymous":false},{"type":"event","name":"Upgraded","inputs":[{"name":"implementation","type":"address","indexed":true,"internalType":"address"}],"anonymous":false},{"type":"event","name":"VoteCast","inputs":[{"name":"voter","type":"address","indexed":true,"internalType":"address"},{"name":"proposalId","type":"uint256","indexed":false,"internalType":"uint256"},{"name":"support","type":"uint8","indexed":false,"internalType":"uint8"},{"name":"weight","type":"uint256","indexed":false,"internalType":"uint256"},{"name":"reason","type":"string","indexed":false,"internalType":"string"}],"anonymous":false},{"type":"event","name":"VoteCastWithParams","inputs":[{"name":"voter","type":"address","indexed":true,"internalType":"address"},{"name":"proposalId","type":"uint256","indexed":false,"internalType":"uint256"},{"name":"support","type":"uint8","indexed":false,"internalType":"uint8"},{"name":"weight","type":"uint256","indexed":false,"internalType":"uint256"},{"name":"reason","type":"string","indexed":false,"internalType":"string"},{"name":"params","type":"bytes","indexed":false,"internalType":"bytes"}],"anonymous":false},{"type":"event","name":"VotingDelaySet","inputs":[{"name":"oldVotingDelay","type":"uint256","indexed":false,"internalType":"uint256"},{"name":"newVotingDelay","type":"uint256","indexed":false,"internalType":"uint256"}],"anonymous":false},{"type":"event","name":"VotingPeriodSet","inputs":[{"name":"oldVotingPeriod","type":"uint256","indexed":false,"internalType":"uint256"},{"name":"newVotingPeriod","type":"uint256","indexed":false,"internalType":"uint256"}],"anonymous":false},{"type":"error","name":"AddressEmptyCode","inputs":[{"name":"target","type":"address","internalType":"address"}]},{"type":"error","name":"CheckpointUnorderedInsertion","inputs":[]},{"type":"error","name":"ERC1967InvalidImplementation","inputs":[{"name":"implementation","type":"address","internalType":"address"}]},{"type":"error","name":"ERC1967NonPayable","inputs":[]},{"type":"error","name":"FailedInnerCall","inputs":[]},{"type":"error","name":"GovernorAlreadyCastVote","inputs":[{"name":"voter","type":"address","internalType":"address"}]},{"type":"error","name":"GovernorAlreadyQueuedProposal","inputs":[{"name":"proposalId","type":"uint256","internalType":"uint256"}]},{"type":"error","name":"GovernorDisabledDeposit","inputs":[]},{"type":"error","name":"GovernorInsufficientProposerVotes","inputs":[{"name":"proposer","type":"address","internalType":"address"},{"name":"votes","type":"uint256","internalType":"uint256"},{"name":"threshold","type":"uint256","internalType":"uint256"}]},{"type":"error","name":"GovernorInvalidProposalLength","inputs":[{"name":"targets","type":"uint256","internalType":"uint256"},{"name":"calldatas","type":"uint256","internalType":"uint256"},{"name":"values","type":"uint256","internalType":"uint256"}]},{"type":"error","name":"GovernorInvalidQuorumFraction","inputs":[{"name":"quorumNumerator","type":"uint256","internalType":"uint256"},{"name":"quorumDenominator","type":"uint256","internalType":"uint256"}]},{"type":"error","name":"GovernorInvalidSignature","inputs":[{"name":"voter","type":"address","internalType":"address"}]},{"type":"error","name":"GovernorInvalidVoteType","inputs":[]},{"type":"error","name":"GovernorInvalidVotingPeriod","inputs":[{"name":"votingPeriod","type":"uint256","internalType":"uint256"}]},{"type":"error","name":"GovernorNonexistentProposal","inputs":[{"name":"proposalId","type":"uint256","internalType":"uint256"}]},{"type":"error","name":"GovernorNotQueuedProposal","inputs":[{"name":"proposalId","type":"uint256","internalType":"uint256"}]},{"type":"error","name":"GovernorOnlyExecutor","inputs":[{"name":"account","type":"address","internalType":"address"}]},{"type":"error","name":"GovernorOnlyProposer","inputs":[{"name":"account","type":"address","internalType":"address"}]},{"type":"error","name":"GovernorQueueNotImplemented","inputs":[]},{"type":"error","name":"GovernorRestrictedProposer","inputs":[{"name":"proposer","type":"address","internalType":"address"}]},{"type":"error","name":"GovernorUnexpectedProposalState","inputs":[{"name":"proposalId","type":"uint256","internalType":"uint256"},{"name":"current","type":"uint8","internalType":"enum IGovernor.ProposalState"},{"name":"expectedStates","type":"bytes32","internalType":"bytes32"}]},{"type":"error","name":"InvalidAccountNonce","inputs":[{"name":"account","type":"address","internalType":"address"},{"name":"currentNonce","type":"uint256","internalType":"uint256"}]},{"type":"error","name":"InvalidInitialization","inputs":[]},{"type":"error","name":"NotInitializing","inputs":[]},{"type":"error","name":"OwnableInvalidOwner","inputs":[{"name":"owner","type":"address","internalType":"address"}]},{"type":"error","name":"OwnableUnauthorizedAccount","inputs":[{"name":"account","type":"address","internalType":"address"}]},{"type":"error","name":"QueueEmpty","inputs":[]},{"type":"error","name":"QueueFull","inputs":[]},{"type":"error","name":"SafeCastOverflowedUintDowncast","inputs":[{"name":"bits","type":"uint8","internalType":"uint8"},{"name":"value","type":"uint256","internalType":"uint256"}]},{"type":"error","name":"UUPSUnauthorizedCallContext","inputs":[]},{"type":"error","name":"UUPSUnsupportedProxiableUUID","inputs":[{"name":"slot","type":"bytes32","internalType":"bytes32"}]}],"bytecode":{"object":"0x60a060405230608052348015610013575f80fd5b5061001c610021565b6100d3565b7ff0c57e16840df040f15088dc2f81fe391c3923bec73e23a9662efc9c229c6a00805468010000000000000000900460ff16156100715760405163f92ee8a960e01b815260040160405180910390fd5b80546001600160401b03908116146100d05780546001600160401b0319166001600160401b0390811782556040519081527fc7f505b2f371ae2175ee4913f4499e1f2633a7b5936321eed1cdaeb6115181d29060200160405180910390a15b50565b6080516170aa6100f95f395f818161318a015281816131b301526133cf01526170aa5ff3fe608060405260043610610395575f3560e01c80637d5e81e2116101de578063c01f9e3711610108578063e540d01d1161009d578063f2fde38b1161006d578063f2fde38b14610d94578063f8ce560a14610db3578063fc0c546a14610dd2578063fe0d94c114610de6575f80fd5b8063e540d01d14610d18578063eb9019d414610d37578063ece40cc114610d56578063f23a6e6114610d75575f80fd5b8063da35c664116100d8578063da35c66414610c6d578063dd4e2ba514610c81578063ddf0b00914610cc6578063deaaa7cc14610ce5575f80fd5b8063c01f9e3714610c08578063c28bc2fa14610c27578063c59057e414610c3a578063d33219b414610c59575f80fd5b80639a802a6d1161017e578063ab58fb8e1161014e578063ab58fb8e14610b38578063ad3cb1cc14610b8d578063b58131b014610bd5578063bc197c8114610be9575f80fd5b80639a802a6d14610ac7578063a7713a7014610ae6578063a890c91014610afa578063a9a9529414610b19575f80fd5b80638da5cb5b116101b95780638da5cb5b14610a565780638ff262e314610a6a57806391ddadf414610a8957806397c3d33414610ab4575f80fd5b80637d5e81e2146109b05780637ecebe00146109cf57806384b0196e14610a2f575f80fd5b806343859632116102bf57806354fd4d501161025f57806360c4247f1161022f57806360c4247f1461093f578063715018a61461095e57806379051887146109725780637b3c71d314610991575f80fd5b806354fd4d501461089d57806356781388146108e25780635b8d0e0d146109015780635f398a1414610920575f80fd5b80634bf5d7e91161029a5780634bf5d7e9146107f05780634f1ef2861461080457806352d1902d14610817578063544ffc9c1461082b575f80fd5b8063438596321461073e578063452115d6146107b2578063485cc955146107d1575f80fd5b806316e9eaec116103355780632fe3e261116103055780632fe3e261146106865780633932abb1146106b95780633e4f49e6146106f357806340e58ee51461071f575f80fd5b806316e9eaec146105aa5780632656227d146105d95780632d63f693146105ec5780632e82db9414610656575f80fd5b806306fdde031161037057806306fdde0314610495578063143489d0146104b6578063150b7a021461053b578063160cbed71461058b575f80fd5b806301ffc9a7146103f657806302a251a31461042a57806306f3f9e614610476575f80fd5b366103f257306103a3610df9565b73ffffffffffffffffffffffffffffffffffffffff16146103f0576040517fe90a651e00000000000000000000000000000000000000000000000000000000815260040160405180910390fd5b005b5f80fd5b348015610401575f80fd5b50610415610410366004615c40565b610e07565b60405190151581526020015b60405180910390f35b348015610435575f80fd5b507ed7616c8fe29c6c2fbe1d0c5bc8f2faa4c35b43746e70b24b4d532752affd01546601000000000000900463ffffffff165b604051908152602001610421565b348015610481575f80fd5b506103f0610490366004615c7f565b610eeb565b3480156104a0575f80fd5b506104a9610eff565b6040516104219190615ce2565b3480156104c1575f80fd5b506105166104d0366004615c7f565b5f9081527f7c712897014dbe49c045ef1299aa2d5f9e67e48eea4403efa21f1e0f3ac0cb01602052604090205473ffffffffffffffffffffffffffffffffffffffff1690565b60405173ffffffffffffffffffffffffffffffffffffffff9091168152602001610421565b348015610546575f80fd5b5061055a610555366004615e2f565b610fb3565b6040517fffffffff000000000000000000000000000000000000000000000000000000009091168152602001610421565b348015610596575f80fd5b506104686105a5366004616002565b611034565b3480156105b5575f80fd5b506105c96105c4366004615c7f565b611157565b6040516104219493929190616190565b6104686105e7366004616002565b61139e565b3480156105f7575f80fd5b50610468610606366004615c7f565b5f9081527f7c712897014dbe49c045ef1299aa2d5f9e67e48eea4403efa21f1e0f3ac0cb01602052604090205474010000000000000000000000000000000000000000900465ffffffffffff1690565b348015610661575f80fd5b50610675610670366004615c7f565b6115b0565b6040516104219594939291906161da565b348015610691575f80fd5b506104687f3e83946653575f9a39005e1545185629e92736b7528ab20ca3816f315424a81181565b3480156106c4575f80fd5b507ed7616c8fe29c6c2fbe1d0c5bc8f2faa4c35b43746e70b24b4d532752affd015465ffffffffffff16610468565b3480156106fe575f80fd5b5061071261070d366004615c7f565b61161f565b6040516104219190616291565b34801561072a575f80fd5b506103f0610739366004615c7f565b611629565b348015610749575f80fd5b5061041561075836600461629f565b5f9182527fa1cefa0f43667ef127a258e673c94202a79b656e62899531c4376d87a7f398006020908152604080842073ffffffffffffffffffffffffffffffffffffffff9390931684526003909201905290205460ff1690565b3480156107bd575f80fd5b506104686107cc366004616002565b61180e565b3480156107dc575f80fd5b506103f06107eb3660046162cd565b6118bf565b3480156107fb575f80fd5b506104a9611ad7565b6103f06108123660046162f9565b611ba9565b348015610822575f80fd5b50610468611bc8565b348015610836575f80fd5b50610882610845366004615c7f565b5f9081527fa1cefa0f43667ef127a258e673c94202a79b656e62899531c4376d87a7f3980060205260409020805460018201546002909201549092565b60408051938452602084019290925290820152606001610421565b3480156108a8575f80fd5b5060408051808201909152600181527f310000000000000000000000000000000000000000000000000000000000000060208201526104a9565b3480156108ed575f80fd5b506104686108fc366004616356565b611bf6565b34801561090c575f80fd5b5061046861091b3660046163c5565b611c1d565b34801561092b575f80fd5b5061046861093a366004616484565b611dd8565b34801561094a575f80fd5b50610468610959366004615c7f565b611e2b565b348015610969575f80fd5b506103f0611f14565b34801561097d575f80fd5b506103f061098c36600461651a565b611f27565b34801561099c575f80fd5b506104686109ab366004616535565b611f38565b3480156109bb575f80fd5b506104686109ca36600461658b565b611f7e565b3480156109da575f80fd5b506104686109e936600461664b565b73ffffffffffffffffffffffffffffffffffffffff165f9081527f5ab42ced628888259c08ac98db1eb0cf702fc1501344311d8b100cd1bfe4bb00602052604090205490565b348015610a3a575f80fd5b50610a43612084565b6040516104219796959493929190616666565b348015610a61575f80fd5b5061051661217e565b348015610a75575f80fd5b50610468610a843660046166fc565b6121bf565b348015610a94575f80fd5b50610a9d6122ed565b60405165ffffffffffff9091168152602001610421565b348015610abf575f80fd5b506064610468565b348015610ad2575f80fd5b50610468610ae136600461674a565b612386565b348015610af1575f80fd5b5061046861239c565b348015610b05575f80fd5b506103f0610b1436600461664b565b6123e9565b348015610b24575f80fd5b50610415610b33366004615c7f565b6123fa565b348015610b43575f80fd5b50610468610b52366004615c7f565b5f9081527f7c712897014dbe49c045ef1299aa2d5f9e67e48eea4403efa21f1e0f3ac0cb01602052604090206001015465ffffffffffff1690565b348015610b98575f80fd5b506104a96040518060400160405280600581526020017f352e302e3000000000000000000000000000000000000000000000000000000081525081565b348015610be0575f80fd5b50610468612402565b348015610bf4575f80fd5b5061055a610c0336600461679f565b61240b565b348015610c13575f80fd5b50610468610c22366004615c7f565b61248d565b6103f0610c35366004616839565b612539565b348015610c45575f80fd5b50610468610c54366004616002565b6125b9565b348015610c64575f80fd5b50610516612610565b348015610c78575f80fd5b50610468612638565b348015610c8c575f80fd5b506040805180820190915260208082527f737570706f72743d627261766f2671756f72756d3d666f722c6162737461696e908201526104a9565b348015610cd1575f80fd5b506103f0610ce0366004615c7f565b612663565b348015610cf0575f80fd5b506104687ff2aad550cf55f045cb27e9c559f9889fdfb6e6cdaa032301d6ea397784ae51d781565b348015610d23575f80fd5b506103f0610d32366004616879565b612842565b348015610d42575f80fd5b50610468610d5136600461689c565b612853565b348015610d61575f80fd5b506103f0610d70366004615c7f565b612872565b348015610d80575f80fd5b5061055a610d8f3660046168c6565b612883565b348015610d9f575f80fd5b506103f0610dae36600461664b565b612905565b348015610dbe575f80fd5b50610468610dcd366004615c7f565b612965565b348015610ddd575f80fd5b50610516612a06565b6103f0610df4366004615c7f565b612a2e565b5f610e02612610565b905090565b5f7fffffffff0000000000000000000000000000000000000000000000000000000082167f65455a86000000000000000000000000000000000000000000000000000000001480610e9957507fffffffff0000000000000000000000000000000000000000000000000000000082167f4e2312e000000000000000000000000000000000000000000000000000000000145b80610ee557507f01ffc9a7000000000000000000000000000000000000000000000000000000007fffffffff000000000000000000000000000000000000000000000000000000008316145b92915050565b610ef3612c0d565b610efc81612cdc565b50565b7f7c712897014dbe49c045ef1299aa2d5f9e67e48eea4403efa21f1e0f3ac0cb008054606091908190610f319061691e565b80601f0160208091040260200160405190810160405280929190818152602001828054610f5d9061691e565b8015610fa85780601f10610f7f57610100808354040283529160200191610fa8565b820191905f5260205f20905b815481529060010190602001808311610f8b57829003601f168201915b505050505091505090565b5f30610fbd610df9565b73ffffffffffffffffffffffffffffffffffffffff161461100a576040517fe90a651e00000000000000000000000000000000000000000000000000000000815260040160405180910390fd5b507f150b7a0200000000000000000000000000000000000000000000000000000000949350505050565b5f7f7c712897014dbe49c045ef1299aa2d5f9e67e48eea4403efa21f1e0f3ac0cb0081611063878787876125b9565b9050611078816110736004612dab565b612dcd565b505f6110878289898989612e23565b905065ffffffffffff81161561111a575f8281526001848101602090815260409283902090910180547fffffffffffffffffffffffffffffffffffffffffffffffffffff0000000000001665ffffffffffff85169081179091558251858152918201527f9a2e42fd6722813d69113e7d0079d3d940171428df7373df9c7f7617cfda2892910160405180910390a161114c565b6040517f90884a4600000000000000000000000000000000000000000000000000000000815260040160405180910390fd5b509695505050505050565b606080805f807f7fd223d3380145bd26132714391e777c488a0df7ac2dd4b66419d8549fb3a6005f87815260018201602090815260408083208151815460a0948102820185019093526080810183815295965093949092849284918401828280156111f657602002820191905f5260205f20905b815473ffffffffffffffffffffffffffffffffffffffff1681526001909101906020018083116111cb575b505050505081526020016001820180548060200260200160405190810160405280929190818152602001828054801561124c57602002820191905f5260205f20905b815481526020019060010190808311611238575b5050505050815260200160028201805480602002602001604051908101604052809291908181526020015f905b82821015611321578382905f5260205f200180546112969061691e565b80601f01602080910402602001604051908101604052809291908181526020018280546112c29061691e565b801561130d5780601f106112e45761010080835404028352916020019161130d565b820191905f5260205f20905b8154815290600101906020018083116112f057829003601f168201915b505050505081526020019060010190611279565b505050508152602001600382015481525050905080606001515f801b0361137c576040517f6ad06075000000000000000000000000000000000000000000000000000000008152600481018890526024015b60405180910390fd5b8051602082015160408301516060909301519199909850919650945092505050565b5f7f7c712897014dbe49c045ef1299aa2d5f9e67e48eea4403efa21f1e0f3ac0cb00816113cd878787876125b9565b90506113ed816113dd6005612dab565b6113e76004612dab565b17612dcd565b505f818152600183016020526040902080547fff00ffffffffffffffffffffffffffffffffffffffffffffffffffffffffffff167e010000000000000000000000000000000000000000000000000000000000001790553061144d610df9565b73ffffffffffffffffffffffffffffffffffffffff16146114ff575f5b87518110156114fd573073ffffffffffffffffffffffffffffffffffffffff1688828151811061149c5761149c61696f565b602002602001015173ffffffffffffffffffffffffffffffffffffffff16036114f5576114f58682815181106114d4576114d461696f565b60200260200101518051906020012084600201612e3190919063ffffffff16565b60010161146a565b505b61150c8188888888612ee6565b30611515610df9565b73ffffffffffffffffffffffffffffffffffffffff1614158015611566575060028201546fffffffffffffffffffffffffffffffff8082167001000000000000000000000000000000009092041614155b15611572575f60028301555b6040518181527f712ae1383f79ac853f8d882153778e0260ef8f03b504e2866e0593e04d2b291f906020015b60405180910390a19695505050505050565b5f6060808083807f7fd223d3380145bd26132714391e777c488a0df7ac2dd4b66419d8549fb3a60090505f815f0188815481106115ef576115ef61696f565b905f5260205f20015490505f805f8061160785611157565b979f929e50909c509a50949850939650505050505050565b5f610ee582612efa565b5f8181527f7fd223d3380145bd26132714391e777c488a0df7ac2dd4b66419d8549fb3a601602090815260409182902080548351818402810184019094528084527f7fd223d3380145bd26132714391e777c488a0df7ac2dd4b66419d8549fb3a600939192611808929184918301828280156116d957602002820191905f5260205f20905b815473ffffffffffffffffffffffffffffffffffffffff1681526001909101906020018083116116ae575b50505050508260010180548060200260200160405190810160405280929190818152602001828054801561172a57602002820191905f5260205f20905b815481526020019060010190808311611716575b505050505083600201805480602002602001604051908101604052809291908181526020015f905b828210156117fa578382905f5260205f2001805461176f9061691e565b80601f016020809104026020016040519081016040528092919081815260200182805461179b9061691e565b80156117e65780601f106117bd576101008083540402835291602001916117e6565b820191905f5260205f20905b8154815290600101906020018083116117c957829003601f168201915b505050505081526020019060010190611752565b50505050846003015461180e565b50505050565b5f8061181c868686866125b9565b905061182b816110735f612dab565b505f8181527f7c712897014dbe49c045ef1299aa2d5f9e67e48eea4403efa21f1e0f3ac0cb01602052604090205473ffffffffffffffffffffffffffffffffffffffff1633146118a9576040517f233d98e3000000000000000000000000000000000000000000000000000000008152336004820152602401611373565b6118b5868686866130a4565b9695505050505050565b7ff0c57e16840df040f15088dc2f81fe391c3923bec73e23a9662efc9c229c6a00805468010000000000000000810460ff16159067ffffffffffffffff165f811580156119095750825b90505f8267ffffffffffffffff1660011480156119255750303b155b905081158015611933575080155b1561196a576040517ff92ee8a900000000000000000000000000000000000000000000000000000000815260040160405180910390fd5b84547fffffffffffffffffffffffffffffffffffffffffffffffff000000000000000016600117855583156119cb5784547fffffffffffffffffffffffffffffffffffffffffffffff00ffffffffffffffff16680100000000000000001785555b6119d4866130ba565b611a126040518060400160405280601381526020017f42657261636861696e476f7665726e616e6365000000000000000000000000008152506130cb565b611a41611a2260046154606169f6565b611a2f6004615460616a21565b6b033b2e3c9fd0803ce800000061311f565b611a49613137565b611a51613137565b611a5a8761313f565b611a64600a613150565b611a6d86613161565b8315611ace5784547fffffffffffffffffffffffffffffffffffffffffffffff00ffffffffffffffff168555604051600181527fc7f505b2f371ae2175ee4913f4499e1f2633a7b5936321eed1cdaeb6115181d29060200160405180910390a15b50505050505050565b6060611ae1612a06565b73ffffffffffffffffffffffffffffffffffffffff16634bf5d7e96040518163ffffffff1660e01b81526004015f60405180830381865afa925050508015611b6857506040513d5f823e601f3d9081017fffffffffffffffffffffffffffffffffffffffffffffffffffffffffffffffe0168201604052611b659190810190616a48565b60015b611ba4575060408051808201909152601d81527f6d6f64653d626c6f636b6e756d6265722666726f6d3d64656661756c74000000602082015290565b919050565b611bb1613172565b611bba82613276565b611bc4828261327e565b5050565b5f611bd16133b7565b507f360894a13ba1a3210667c828492db98dca3e2076cc3735a920a3ca505d382bbc90565b5f80339050611c1584828560405180602001604052805f815250613426565b949350505050565b5f80611d3787611d317f3e83946653575f9a39005e1545185629e92736b7528ab20ca3816f315424a8118c8c8c611c9c8e73ffffffffffffffffffffffffffffffffffffffff165f9081527f5ab42ced628888259c08ac98db1eb0cf702fc1501344311d8b100cd1bfe4bb006020526040902080546001810190915590565b8d8d604051611cac929190616abd565b60405180910390208c80519060200120604051602001611d169796959493929190968752602087019590955260ff93909316604086015273ffffffffffffffffffffffffffffffffffffffff919091166060850152608084015260a083015260c082015260e00190565b60405160208183030381529060405280519060200120613447565b8561348e565b905080611d88576040517f94ab6c0700000000000000000000000000000000000000000000000000000000815273ffffffffffffffffffffffffffffffffffffffff88166004820152602401611373565b611dcb89888a89898080601f0160208091040260200160405190810160405280939291908181526020018383808284375f920191909152508b92506134fd915050565b9998505050505050505050565b5f80339050611e2087828888888080601f0160208091040260200160405190810160405280939291908181526020018383808284375f920191909152508a92506134fd915050565b979650505050505050565b7fe770710421fd2cad75ad828c61aa98f2d77d423a440b67872d0f65554148e00080545f91908282611e5e600184616acc565b81548110611e6e57611e6e61696f565b5f918252602090912001805490915065ffffffffffff8116906601000000000000900479ffffffffffffffffffffffffffffffffffffffffffffffffffff16868211611eda5779ffffffffffffffffffffffffffffffffffffffffffffffffffff169695505050505050565b611eed611ee688613636565b8690613685565b79ffffffffffffffffffffffffffffffffffffffffffffffffffff16979650505050505050565b611f1c61374a565b611f255f6137a2565b565b611f2f612c0d565b610efc81613837565b5f803390506118b586828787878080601f0160208091040260200160405190810160405280939291908181526020018383808284375f9201919091525061342692505050565b5f33611f8a81846138f6565b611fd8576040517fd9b3955700000000000000000000000000000000000000000000000000000000815273ffffffffffffffffffffffffffffffffffffffff82166004820152602401611373565b5f611ffe826001611fe76122ed565b611ff19190616adf565b65ffffffffffff16612853565b90505f612009612402565b90508082101561206b576040517fc242ee1600000000000000000000000000000000000000000000000000000000815273ffffffffffffffffffffffffffffffffffffffff841660048201526024810183905260448101829052606401611373565b6120788888888887613a64565b98975050505050505050565b5f60608082808083817fa16a46d94261c7517cc8ff89f61c0ce93598e3c849801011dee649a6a557d10080549091501580156120c257506001810154155b612128576040517f08c379a000000000000000000000000000000000000000000000000000000000815260206004820152601560248201527f4549503731323a20556e696e697469616c697a656400000000000000000000006044820152606401611373565b612130613a72565b612138613ac3565b604080515f808252602082019092527f0f000000000000000000000000000000000000000000000000000000000000009c939b5091995046985030975095509350915050565b5f807f9016d09d72d40fdae2fd8ceac6b6234c7706214fd39c1cd1e609a0528c1993005b5473ffffffffffffffffffffffffffffffffffffffff1692915050565b5f8061228284611d317ff2aad550cf55f045cb27e9c559f9889fdfb6e6cdaa032301d6ea397784ae51d789898961223e8b73ffffffffffffffffffffffffffffffffffffffff165f9081527f5ab42ced628888259c08ac98db1eb0cf702fc1501344311d8b100cd1bfe4bb006020526040902080546001810190915590565b60408051602081019690965285019390935260ff909116606084015273ffffffffffffffffffffffffffffffffffffffff16608083015260a082015260c001611d16565b9050806122d3576040517f94ab6c0700000000000000000000000000000000000000000000000000000000815273ffffffffffffffffffffffffffffffffffffffff85166004820152602401611373565b6118b586858760405180602001604052805f815250613426565b5f6122f6612a06565b73ffffffffffffffffffffffffffffffffffffffff166391ddadf46040518163ffffffff1660e01b8152600401602060405180830381865afa92505050801561237a575060408051601f3d9081017fffffffffffffffffffffffffffffffffffffffffffffffffffffffffffffffe016820190925261237791810190616afd565b60015b611ba457610e02613b14565b5f612392848484613b1e565b90505b9392505050565b5f7fe770710421fd2cad75ad828c61aa98f2d77d423a440b67872d0f65554148e0006123c781613bbe565b79ffffffffffffffffffffffffffffffffffffffffffffffffffff1691505090565b6123f1612c0d565b610efc81613c0b565b5f6001610ee5565b5f610e02613cc5565b5f30612415610df9565b73ffffffffffffffffffffffffffffffffffffffff1614612462576040517fe90a651e00000000000000000000000000000000000000000000000000000000815260040160405180910390fd5b507fbc197c810000000000000000000000000000000000000000000000000000000095945050505050565b5f8181527f7c712897014dbe49c045ef1299aa2d5f9e67e48eea4403efa21f1e0f3ac0cb0160205260408120547f7c712897014dbe49c045ef1299aa2d5f9e67e48eea4403efa21f1e0f3ac0cb009061252a907a010000000000000000000000000000000000000000000000000000810463ffffffff169074010000000000000000000000000000000000000000900465ffffffffffff16616b18565b65ffffffffffff169392505050565b612541612c0d565b5f808573ffffffffffffffffffffffffffffffffffffffff1685858560405161256b929190616abd565b5f6040518083038185875af1925050503d805f81146125a5576040519150601f19603f3d011682016040523d82523d5f602084013e6125aa565b606091505b5091509150611ace8282613cec565b5f848484846040516020016125d19493929190616190565b604080517fffffffffffffffffffffffffffffffffffffffffffffffffffffffffffffffe0818403018152919052805160209091012095945050505050565b5f807f0d5829787b8befdbc6044ef7457d8a95c2a04bc99235349f1a212c063e59d4006121a2565b5f807f7fd223d3380145bd26132714391e777c488a0df7ac2dd4b66419d8549fb3a6005b5492915050565b5f8181527f7fd223d3380145bd26132714391e777c488a0df7ac2dd4b66419d8549fb3a601602090815260409182902080548351818402810184019094528084527f7fd223d3380145bd26132714391e777c488a0df7ac2dd4b66419d8549fb3a6009391926118089291849183018282801561271357602002820191905f5260205f20905b815473ffffffffffffffffffffffffffffffffffffffff1681526001909101906020018083116126e8575b50505050508260010180548060200260200160405190810160405280929190818152602001828054801561276457602002820191905f5260205f20905b815481526020019060010190808311612750575b505050505083600201805480602002602001604051908101604052809291908181526020015f905b82821015612834578382905f5260205f200180546127a99061691e565b80601f01602080910402602001604051908101604052809291908181526020018280546127d59061691e565b80156128205780601f106127f757610100808354040283529160200191612820565b820191905f5260205f20905b81548152906001019060200180831161280357829003601f168201915b50505050508152602001906001019061278c565b505050508460030154611034565b61284a612c0d565b610efc81613d08565b5f612395838361286d60408051602081019091525f815290565b613b1e565b61287a612c0d565b610efc81613dfb565b5f3061288d610df9565b73ffffffffffffffffffffffffffffffffffffffff16146128da576040517fe90a651e00000000000000000000000000000000000000000000000000000000815260040160405180910390fd5b507ff23a6e610000000000000000000000000000000000000000000000000000000095945050505050565b61290d61374a565b73ffffffffffffffffffffffffffffffffffffffff811661295c576040517f1e4fbdf70000000000000000000000000000000000000000000000000000000081525f6004820152602401611373565b610efc816137a2565b5f606461297183611e2b565b612979612a06565b73ffffffffffffffffffffffffffffffffffffffff16638e539e8c856040518263ffffffff1660e01b81526004016129b391815260200190565b602060405180830381865afa1580156129ce573d5f803e3d5ffd5b505050506040513d601f19601f820116820180604052508101906129f29190616b36565b6129fc9190616b4d565b610ee59190616b64565b5f807f3ba4977254e415696610a40ebf2258dbfa0ec6a2ff64e84bfe715ff16977cc006121a2565b5f8181527f7fd223d3380145bd26132714391e777c488a0df7ac2dd4b66419d8549fb3a601602090815260409182902080548351818402810184019094528084527f7fd223d3380145bd26132714391e777c488a0df7ac2dd4b66419d8549fb3a60093919261180892918491830182828015612ade57602002820191905f5260205f20905b815473ffffffffffffffffffffffffffffffffffffffff168152600190910190602001808311612ab3575b505050505082600101805480602002602001604051908101604052809291908181526020018280548015612b2f57602002820191905f5260205f20905b815481526020019060010190808311612b1b575b505050505083600201805480602002602001604051908101604052809291908181526020015f905b82821015612bff578382905f5260205f20018054612b749061691e565b80601f0160208091040260200160405190810160405280929190818152602001828054612ba09061691e565b8015612beb5780601f10612bc257610100808354040283529160200191612beb565b820191905f5260205f20905b815481529060010190602001808311612bce57829003601f168201915b505050505081526020019060010190612b57565b50505050846003015461139e565b7f7c712897014dbe49c045ef1299aa2d5f9e67e48eea4403efa21f1e0f3ac0cb0033612c37610df9565b73ffffffffffffffffffffffffffffffffffffffff1614612c86576040517f47096e47000000000000000000000000000000000000000000000000000000008152336004820152602401611373565b30612c8f610df9565b73ffffffffffffffffffffffffffffffffffffffff1614610efc575f8036604051612cbb929190616abd565b604051809103902090505b80612cd383600201613e5a565b03612cc6575050565b7fe770710421fd2cad75ad828c61aa98f2d77d423a440b67872d0f65554148e000606480831115612d43576040517f243e54450000000000000000000000000000000000000000000000000000000081526004810184905260248101829052604401611373565b5f612d4c61239c565b9050612d6a612d596122ed565b612d6286613f1d565b859190613f7c565b505060408051828152602081018690527f0553476bf02ef2726e8ce5ced78d63e26e602e4a2257b1f559418e24b4633997910160405180910390a150505050565b5f816007811115612dbe57612dbe61622b565b600160ff919091161b92915050565b5f80612dd88461161f565b90505f83612de583612dab565b1603612395578381846040517f31b75e4d00000000000000000000000000000000000000000000000000000000815260040161137393929190616b77565b5f6118b58686868686613f96565b81546fffffffffffffffffffffffffffffffff700100000000000000000000000000000000820481169181166001830190911603612e9b576040517f8acb5f2700000000000000000000000000000000000000000000000000000000815260040160405180910390fd5b6fffffffffffffffffffffffffffffffff8082165f90815260018086016020526040909120939093558354919092018216700100000000000000000000000000000000029116179055565b612ef385858585856141c7565b5050505050565b5f7f0d5829787b8befdbc6044ef7457d8a95c2a04bc99235349f1a212c063e59d40081612f26846142b4565b90506005816007811115612f3c57612f3c61622b565b14612f48579392505050565b5f8481526001830160205260409081902054835491517f584b153e00000000000000000000000000000000000000000000000000000000815260048101829052909173ffffffffffffffffffffffffffffffffffffffff169063584b153e90602401602060405180830381865afa158015612fc5573d5f803e3d5ffd5b505050506040513d601f19601f82011682018060405250810190612fe99190616b99565b15612ff957506005949350505050565b82546040517f2ab0f5290000000000000000000000000000000000000000000000000000000081526004810183905273ffffffffffffffffffffffffffffffffffffffff90911690632ab0f52990602401602060405180830381865afa158015613065573d5f803e3d5ffd5b505050506040513d601f19601f820116820180604052508101906130899190616b99565b1561309957506007949350505050565b506002949350505050565b5f6130b1858585856144ff565b95945050505050565b6130c26145e1565b610efc81614648565b6130d36145e1565b6131168161311160408051808201909152600181527f3100000000000000000000000000000000000000000000000000000000000000602082015290565b614650565b610efc816146c2565b6131276145e1565b6131328383836146f6565b505050565b611f256145e1565b6131476145e1565b610efc81614719565b6131586145e1565b610efc81614787565b6131696145e1565b610efc8161478f565b3073ffffffffffffffffffffffffffffffffffffffff7f000000000000000000000000000000000000000000000000000000000000000016148061323f57507f000000000000000000000000000000000000000000000000000000000000000073ffffffffffffffffffffffffffffffffffffffff166132267f360894a13ba1a3210667c828492db98dca3e2076cc3735a920a3ca505d382bbc5473ffffffffffffffffffffffffffffffffffffffff1690565b73ffffffffffffffffffffffffffffffffffffffff1614155b15611f25576040517fe07c8dba00000000000000000000000000000000000000000000000000000000815260040160405180910390fd5b610efc61374a565b8173ffffffffffffffffffffffffffffffffffffffff166352d1902d6040518163ffffffff1660e01b8152600401602060405180830381865afa925050508015613303575060408051601f3d9081017fffffffffffffffffffffffffffffffffffffffffffffffffffffffffffffffe016820190925261330091810190616b36565b60015b613351576040517f4c9c8ce300000000000000000000000000000000000000000000000000000000815273ffffffffffffffffffffffffffffffffffffffff83166004820152602401611373565b7f360894a13ba1a3210667c828492db98dca3e2076cc3735a920a3ca505d382bbc81146133ad576040517faa1d49a400000000000000000000000000000000000000000000000000000000815260048101829052602401611373565b6131328383614797565b3073ffffffffffffffffffffffffffffffffffffffff7f00000000000000000000000000000000000000000000000000000000000000001614611f25576040517fe07c8dba00000000000000000000000000000000000000000000000000000000815260040160405180910390fd5b5f6130b18585858561344260408051602081019091525f815290565b6134fd565b5f610ee56134536147f9565b836040517f19010000000000000000000000000000000000000000000000000000000000008152600281019290925260228201526042902090565b5f805f61349b8585614802565b5090925090505f8160038111156134b4576134b461622b565b1480156134ec57508573ffffffffffffffffffffffffffffffffffffffff168273ffffffffffffffffffffffffffffffffffffffff16145b806118b557506118b586868661484b565b5f61350c866110736001612dab565b505f8681527f7c712897014dbe49c045ef1299aa2d5f9e67e48eea4403efa21f1e0f3ac0cb01602052604081205461356690879074010000000000000000000000000000000000000000900465ffffffffffff1685613b1e565b90506135758787878487614993565b82515f036135d6578573ffffffffffffffffffffffffffffffffffffffff167fb8e138887d0aa13bab447e82de9d5c1777041ecd21ca36ba824ff1e6c07ddda4888784886040516135c99493929190616bb8565b60405180910390a26118b5565b8573ffffffffffffffffffffffffffffffffffffffff167fe2babfbac5889a709b63bb7f598b324e08bc5a4fb9ec647fb3cbc9ec07eb87128887848888604051613624959493929190616bdf565b60405180910390a29695505050505050565b5f65ffffffffffff821115613681576040517f6dfcc6500000000000000000000000000000000000000000000000000000000081526030600482015260248101839052604401611373565b5090565b81545f90818160058111156136e1575f61369e84614b5b565b6136a89085616acc565b5f8881526020902090915081015465ffffffffffff90811690871610156136d1578091506136df565b6136dc816001616c18565b92505b505b5f6136ee87878585614c3f565b9050801561373e5761371287613705600184616acc565b5f91825260209091200190565b546601000000000000900479ffffffffffffffffffffffffffffffffffffffffffffffffffff16611e20565b5f979650505050505050565b3361375361217e565b73ffffffffffffffffffffffffffffffffffffffff1614611f25576040517f118cdaa7000000000000000000000000000000000000000000000000000000008152336004820152602401611373565b7f9016d09d72d40fdae2fd8ceac6b6234c7706214fd39c1cd1e609a0528c19930080547fffffffffffffffffffffffff0000000000000000000000000000000000000000811673ffffffffffffffffffffffffffffffffffffffff848116918217845560405192169182907f8be0079c531659141344cd1fd0a4f28419497f9722a3daafe3b4186f6b6457e0905f90a3505050565b7ed7616c8fe29c6c2fbe1d0c5bc8f2faa4c35b43746e70b24b4d532752affd01546040805165ffffffffffff9283168152918316602083015280517ed7616c8fe29c6c2fbe1d0c5bc8f2faa4c35b43746e70b24b4d532752affd00927fc565b045403dc03c2eea82b81a0465edad9e2e7fc4d97e11421c209da93d7a9392908290030190a160010180547fffffffffffffffffffffffffffffffffffffffffffffffffffff0000000000001665ffffffffffff92909216919091179055565b80515f90603481101561390d576001915050610ee5565b8281017fffffffffffffffffffffffffffffffffffffffffffffffffffffffffffffffec01517fffffffffffffffffffffffff000000000000000000000000000000000000000081167f2370726f706f7365723d307800000000000000000000000000000000000000001461398757600192505050610ee5565b5f80613994602885616acc565b90505b83811015613a29575f806139e28884815181106139b6576139b661696f565b01602001517fff0000000000000000000000000000000000000000000000000000000000000016614c9e565b91509150816139fa5760019650505050505050610ee5565b8060ff1660048573ffffffffffffffffffffffffffffffffffffffff16901b1793505050806001019050613997565b508573ffffffffffffffffffffffffffffffffffffffff168173ffffffffffffffffffffffffffffffffffffffff1614935050505092915050565b5f6118b58686868686614d88565b7fa16a46d94261c7517cc8ff89f61c0ce93598e3c849801011dee649a6a557d10280546060917fa16a46d94261c7517cc8ff89f61c0ce93598e3c849801011dee649a6a557d10091610f319061691e565b7fa16a46d94261c7517cc8ff89f61c0ce93598e3c849801011dee649a6a557d10380546060917fa16a46d94261c7517cc8ff89f61c0ce93598e3c849801011dee649a6a557d10091610f319061691e565b5f610e0243613636565b5f613b27612a06565b6040517f3a46b1a800000000000000000000000000000000000000000000000000000000815273ffffffffffffffffffffffffffffffffffffffff8681166004830152602482018690529190911690633a46b1a890604401602060405180830381865afa158015613b9a573d5f803e3d5ffd5b505050506040513d601f19601f820116820180604052508101906123929190616b36565b80545f908015613c0357613bd783613705600184616acc565b546601000000000000900479ffffffffffffffffffffffffffffffffffffffffffffffffffff16612395565b5f9392505050565b7f0d5829787b8befdbc6044ef7457d8a95c2a04bc99235349f1a212c063e59d40080546040805173ffffffffffffffffffffffffffffffffffffffff9283168152918416602083015280517f08f74ea46ef7894f65eabfb5e6e695de773a000b47c529ab559178069b2264019281900390910190a180547fffffffffffffffffffffffff00000000000000000000000000000000000000001673ffffffffffffffffffffffffffffffffffffffff92909216919091179055565b5f807ed7616c8fe29c6c2fbe1d0c5bc8f2faa4c35b43746e70b24b4d532752affd0061265c565b606082613d0157613cfc82614e65565b610ee5565b5080610ee5565b7ed7616c8fe29c6c2fbe1d0c5bc8f2faa4c35b43746e70b24b4d532752affd0063ffffffff82165f03613d69576040517ff1cfbf050000000000000000000000000000000000000000000000000000000081525f6004820152602401611373565b60018101546040805163ffffffff66010000000000009093048316815291841660208301527f7e3f7f0708a84de9203036abaa450dccc85ad5ff52f78c170f3edb55cf5e8828910160405180910390a1600101805463ffffffff9092166601000000000000027fffffffffffffffffffffffffffffffffffffffffffff00000000ffffffffffff909216919091179055565b7ed7616c8fe29c6c2fbe1d0c5bc8f2faa4c35b43746e70b24b4d532752affd008054604080519182526020820184905280517fccb45da8d5717e6c4544694297c4ba5cf151d455c9bb0ed4fc7a38411bc054619281900390910190a155565b80545f906fffffffffffffffffffffffffffffffff808216917001000000000000000000000000000000009004168103613ec0576040517f75e52f4f00000000000000000000000000000000000000000000000000000000815260040160405180910390fd5b6fffffffffffffffffffffffffffffffff8181165f908152600185810160205260408220805492905585547fffffffffffffffffffffffffffffffff00000000000000000000000000000000169301909116919091179092555090565b5f79ffffffffffffffffffffffffffffffffffffffffffffffffffff821115613681576040517f6dfcc65000000000000000000000000000000000000000000000000000000000815260d0600482015260248101839052604401611373565b5f80613f89858585614ea7565b915091505b935093915050565b7f0d5829787b8befdbc6044ef7457d8a95c2a04bc99235349f1a212c063e59d4008054604080517ff27a0c9200000000000000000000000000000000000000000000000000000000815290515f9392849273ffffffffffffffffffffffffffffffffffffffff9091169163f27a0c92916004808201926020929091908290030181865afa158015614029573d5f803e3d5ffd5b505050506040513d601f19601f8201168201806040525081019061404d9190616b36565b90505f3060601b7fffffffffffffffffffffffffffffffffffffffff00000000000000000000000016851883546040517fb1c5f42700000000000000000000000000000000000000000000000000000000815291925073ffffffffffffffffffffffffffffffffffffffff169063b1c5f427906140d6908b908b908b905f908890600401616c2b565b602060405180830381865afa1580156140f1573d5f803e3d5ffd5b505050506040513d601f19601f820116820180604052508101906141159190616b36565b5f8a815260018501602052604080822092909255845491517f8f2a0bb000000000000000000000000000000000000000000000000000000000815273ffffffffffffffffffffffffffffffffffffffff90921691638f2a0bb091614186918c918c918c919088908a90600401616c78565b5f604051808303815f87803b15801561419d575f80fd5b505af11580156141af573d5f803e3d5ffd5b50505050611dcb82426141c29190616c18565b613636565b7f0d5829787b8befdbc6044ef7457d8a95c2a04bc99235349f1a212c063e59d40080546040517fe38335e500000000000000000000000000000000000000000000000000000000815273ffffffffffffffffffffffffffffffffffffffff9091169063e38335e590349061426e908990899089905f907fffffffffffffffffffffffffffffffffffffffff0000000000000000000000003060601b168b1890600401616c2b565b5f604051808303818588803b158015614285575f80fd5b505af1158015614297573d5f803e3d5ffd5b5050505f9788525050600101602052505060408320929092555050565b5f8181527f7c712897014dbe49c045ef1299aa2d5f9e67e48eea4403efa21f1e0f3ac0cb016020526040812080547f7c712897014dbe49c045ef1299aa2d5f9e67e48eea4403efa21f1e0f3ac0cb00919060ff7e0100000000000000000000000000000000000000000000000000000000000082048116917f010000000000000000000000000000000000000000000000000000000000000090041681156143625750600795945050505050565b80156143745750600295945050505050565b5f8681527f7c712897014dbe49c045ef1299aa2d5f9e67e48eea4403efa21f1e0f3ac0cb01602052604081205474010000000000000000000000000000000000000000900465ffffffffffff169050805f036143ff576040517f6ad0607500000000000000000000000000000000000000000000000000000000815260048101889052602401611373565b5f6144086122ed565b65ffffffffffff16905080821061442657505f979650505050505050565b5f6144308961248d565b90508181106144485750600198975050505050505050565b6144518961508e565b158061448f57505f8981527fa1cefa0f43667ef127a258e673c94202a79b656e62899531c4376d87a7f3980060205260409020805460019091015411155b156144a35750600398975050505050505050565b5f8981527f7c712897014dbe49c045ef1299aa2d5f9e67e48eea4403efa21f1e0f3ac0cb01602052604090206001015465ffffffffffff165f036144f05750600498975050505050505050565b50600598975050505050505050565b5f7f0d5829787b8befdbc6044ef7457d8a95c2a04bc99235349f1a212c063e59d4008161452e87878787615130565b5f818152600184016020526040902054909150801561114c5782546040517fc4d252f50000000000000000000000000000000000000000000000000000000081526004810183905273ffffffffffffffffffffffffffffffffffffffff9091169063c4d252f5906024015f604051808303815f87803b1580156145af575f80fd5b505af11580156145c1573d5f803e3d5ffd5b5050505f8381526001850160205260408120555050915050949350505050565b7ff0c57e16840df040f15088dc2f81fe391c3923bec73e23a9662efc9c229c6a005468010000000000000000900460ff16611f25576040517fd7e6bcf800000000000000000000000000000000000000000000000000000000815260040160405180910390fd5b61290d6145e1565b6146586145e1565b7fa16a46d94261c7517cc8ff89f61c0ce93598e3c849801011dee649a6a557d1007fa16a46d94261c7517cc8ff89f61c0ce93598e3c849801011dee649a6a557d1026146a48482616d13565b50600381016146b38382616d13565b505f8082556001909101555050565b6146ca6145e1565b7f7c712897014dbe49c045ef1299aa2d5f9e67e48eea4403efa21f1e0f3ac0cb00806131328382616d13565b6146fe6145e1565b61470783613837565b61471082613d08565b61313281613dfb565b6147216145e1565b7f3ba4977254e415696610a40ebf2258dbfa0ec6a2ff64e84bfe715ff16977cc0080547fffffffffffffffffffffffff00000000000000000000000000000000000000001673ffffffffffffffffffffffffffffffffffffffff92909216919091179055565b610ef36145e1565b6123f16145e1565b6147a082615236565b60405173ffffffffffffffffffffffffffffffffffffffff8316907fbc7cd75a20ee27fd9adebab32041f755214dbc6bffa90cc0225b39da2e5c2d3b905f90a28051156147f1576131328282615304565b611bc461537a565b5f610e026153b2565b5f805f8351604103614839576020840151604085015160608601515f1a61482b88828585615425565b955095509550505050614844565b505081515f91506002905b9250925092565b5f805f8573ffffffffffffffffffffffffffffffffffffffff168585604051602401614878929190616e2a565b604080517fffffffffffffffffffffffffffffffffffffffffffffffffffffffffffffffe08184030181529181526020820180517bffffffffffffffffffffffffffffffffffffffffffffffffffffffff167f1626ba7e00000000000000000000000000000000000000000000000000000000179052516148f99190616e42565b5f60405180830381855afa9150503d805f8114614931576040519150601f19603f3d011682016040523d82523d5f602084013e614936565b606091505b509150915081801561494a57506020815110155b80156118b5575080517f1626ba7e00000000000000000000000000000000000000000000000000000000906149889083016020908101908401616b36565b149695505050505050565b5f8581527fa1cefa0f43667ef127a258e673c94202a79b656e62899531c4376d87a7f398006020818152604080842073ffffffffffffffffffffffffffffffffffffffff89168552600381019092529092205490919060ff1615614a3b576040517f71c6af4900000000000000000000000000000000000000000000000000000000815273ffffffffffffffffffffffffffffffffffffffff87166004820152602401611373565b73ffffffffffffffffffffffffffffffffffffffff86165f908152600382016020526040902080547fffffffffffffffffffffffffffffffffffffffffffffffffffffffffffffff0016600117905560ff8516614aaf5783815f015f828254614aa49190616c18565b90915550611ace9050565b7fffffffffffffffffffffffffffffffffffffffffffffffffffffffffffffffff60ff861601614aec5783816001015f828254614aa49190616c18565b7ffffffffffffffffffffffffffffffffffffffffffffffffffffffffffffffffe60ff861601614b295783816002015f828254614aa49190616c18565b6040517f06b337c200000000000000000000000000000000000000000000000000000000815260040160405180910390fd5b5f815f03614b6a57505f919050565b5f6001614b7684615518565b901c6001901b90506001818481614b8f57614b8f61699c565b048201901c90506001818481614ba757614ba761699c565b048201901c90506001818481614bbf57614bbf61699c565b048201901c90506001818481614bd757614bd761699c565b048201901c90506001818481614bef57614bef61699c565b048201901c90506001818481614c0757614c0761699c565b048201901c90506001818481614c1f57614c1f61699c565b048201901c905061239581828581614c3957614c3961699c565b046155ab565b5f5b81831015614c96575f614c5484846155c0565b5f8781526020902090915065ffffffffffff86169082015465ffffffffffff161115614c8257809250614c90565b614c8d816001616c18565b93505b50614c41565b509392505050565b5f8060f883901c602f81118015614cb85750603a8160ff16105b15614ceb576001947fffffffffffffffffffffffffffffffffffffffffffffffffffffffffffffffd09091019350915050565b8060ff166040108015614d01575060478160ff16105b15614d34576001947fffffffffffffffffffffffffffffffffffffffffffffffffffffffffffffffc99091019350915050565b8060ff166060108015614d4a575060678160ff16105b15614d7d576001947fffffffffffffffffffffffffffffffffffffffffffffffffffffffffffffffa99091019350915050565b505f93849350915050565b5f7f7fd223d3380145bd26132714391e777c488a0df7ac2dd4b66419d8549fb3a60081614db888888888886155da565b8254600181810185555f8581526020808220909301849055604080516080810182528d81528085018d90528082018c90528a518b8601206060820152858352928701845290208151805194955091939092614e17928492910190615acc565b506020828101518051614e309260018501920190615b50565b5060408201518051614e4c916002840191602090910190615b89565b5060609190910151600390910155979650505050505050565b805115614e755780518082602001fd5b6040517f1425ea4200000000000000000000000000000000000000000000000000000000815260040160405180910390fd5b82545f908190801561501e575f614ec387613705600185616acc565b60408051808201909152905465ffffffffffff808216808452660100000000000090920479ffffffffffffffffffffffffffffffffffffffffffffffffffff1660208401529192509087161015614f46576040517f2520601d00000000000000000000000000000000000000000000000000000000815260040160405180910390fd5b805165ffffffffffff808816911603614fa85784614f6988613705600186616acc565b805479ffffffffffffffffffffffffffffffffffffffffffffffffffff9290921666010000000000000265ffffffffffff90921691909117905561500e565b6040805180820190915265ffffffffffff808816825279ffffffffffffffffffffffffffffffffffffffffffffffffffff80881660208085019182528b54600181018d555f8d815291909120945191519092166601000000000000029216919091179101555b602001519250839150613f8e9050565b50506040805180820190915265ffffffffffff808516825279ffffffffffffffffffffffffffffffffffffffffffffffffffff80851660208085019182528854600181018a555f8a8152918220955192519093166601000000000000029190931617920191909155905081613f8e565b5f8181527fa1cefa0f43667ef127a258e673c94202a79b656e62899531c4376d87a7f39800602081905260408220600281015460018201546150d09190616c18565b5f8581527f7c712897014dbe49c045ef1299aa2d5f9e67e48eea4403efa21f1e0f3ac0cb0160205260409020546151269074010000000000000000000000000000000000000000900465ffffffffffff16612965565b1115949350505050565b5f7f7c712897014dbe49c045ef1299aa2d5f9e67e48eea4403efa21f1e0f3ac0cb008161515f878787876125b9565b90506151ad8161516f6007612dab565b6151796006612dab565b6151836002612dab565b6001615190600782616e58565b61519b906002616f8a565b6151a59190616acc565b181818612dcd565b505f8181526001830160205260409081902080547effffffffffffffffffffffffffffffffffffffffffffffffffffffffffffff167f0100000000000000000000000000000000000000000000000000000000000000179055517f789cf55be980739dad1d0699b93b58e806b51c9d96619bfa8fe0a28abaa7b30c9061159e9083815260200190565b8073ffffffffffffffffffffffffffffffffffffffff163b5f0361529e576040517f4c9c8ce300000000000000000000000000000000000000000000000000000000815273ffffffffffffffffffffffffffffffffffffffff82166004820152602401611373565b7f360894a13ba1a3210667c828492db98dca3e2076cc3735a920a3ca505d382bbc80547fffffffffffffffffffffffff00000000000000000000000000000000000000001673ffffffffffffffffffffffffffffffffffffffff92909216919091179055565b60605f808473ffffffffffffffffffffffffffffffffffffffff168460405161532d9190616e42565b5f60405180830381855af49150503d805f8114615365576040519150601f19603f3d011682016040523d82523d5f602084013e61536a565b606091505b50915091506130b1858383615924565b3415611f25576040517fb398979f00000000000000000000000000000000000000000000000000000000815260040160405180910390fd5b5f7f8b73c3c69bb8fe3d512ecc4cf759cc79239f7b179b0ffacaa9a75d522b39400f6153dc6159b3565b6153e4615a2e565b60408051602081019490945283019190915260608201524660808201523060a082015260c00160405160208183030381529060405280519060200120905090565b5f80807f7fffffffffffffffffffffffffffffff5d576e7357a4501ddfe92f46681b20a084111561545e57505f9150600390508261550e565b604080515f808252602082018084528a905260ff891692820192909252606081018790526080810186905260019060a0016020604051602081039080840390855afa1580156154af573d5f803e3d5ffd5b50506040517fffffffffffffffffffffffffffffffffffffffffffffffffffffffffffffffe0015191505073ffffffffffffffffffffffffffffffffffffffff811661550557505f92506001915082905061550e565b92505f91508190505b9450945094915050565b5f80608083901c1561552c57608092831c92015b604083901c1561553e57604092831c92015b602083901c1561555057602092831c92015b601083901c1561556257601092831c92015b600883901c1561557457600892831c92015b600483901c1561558657600492831c92015b600283901c1561559857600292831c92015b600183901c15610ee55760010192915050565b5f8183106155b95781612395565b5090919050565b5f6155ce6002848418616b64565b61239590848416616c18565b5f807f7c712897014dbe49c045ef1299aa2d5f9e67e48eea4403efa21f1e0f3ac0cb00905061561287878787805190602001206125b9565b91508551875114158061562757508451875114155b8061563157508651155b1561567f578651855187516040517f447b05d0000000000000000000000000000000000000000000000000000000008152600481019390935260248301919091526044820152606401611373565b5f82815260018201602052604090205474010000000000000000000000000000000000000000900465ffffffffffff16156156f457816156be8361161f565b6040517f31b75e4d0000000000000000000000000000000000000000000000000000000081526113739291905f90600401616b77565b5f6157247ed7616c8fe29c6c2fbe1d0c5bc8f2faa4c35b43746e70b24b4d532752affd015465ffffffffffff1690565b61572c6122ed565b65ffffffffffff1661573e9190616c18565b90505f6157797ed7616c8fe29c6c2fbe1d0c5bc8f2faa4c35b43746e70b24b4d532752affd015463ffffffff66010000000000009091041690565b5f858152600185016020526040902080547fffffffffffffffffffffffff00000000000000000000000000000000000000001673ffffffffffffffffffffffffffffffffffffffff88161781559091506157d283613636565b815465ffffffffffff9190911674010000000000000000000000000000000000000000027fffffffffffff000000000000ffffffffffffffffffffffffffffffffffffffff90911617815561582682615a83565b815463ffffffff919091167a010000000000000000000000000000000000000000000000000000027fffff00000000ffffffffffffffffffffffffffffffffffffffffffffffffffff90911617815589517f7d84a6263ae0d98d3329bd7b46bb4e8d6f98cd35a7adb45c274c8b7fd5ebd5e090869088908d908d9067ffffffffffffffff8111156158b9576158b9615d15565b6040519080825280602002602001820160405280156158ec57816020015b60608152602001906001900390816158d75790505b508d896158f98a82616c18565b8f60405161590f99989796959493929190616f98565b60405180910390a15050505095945050505050565b6060826159395761593482614e65565b612395565b815115801561595d575073ffffffffffffffffffffffffffffffffffffffff84163b155b156159ac576040517f9996b31500000000000000000000000000000000000000000000000000000000815273ffffffffffffffffffffffffffffffffffffffff85166004820152602401611373565b5080612395565b5f7fa16a46d94261c7517cc8ff89f61c0ce93598e3c849801011dee649a6a557d100816159de613a72565b8051909150156159f657805160209091012092915050565b81548015615a05579392505050565b7fc5d2460186f7233c927e7db2dcc703c0e500b653ca82273b7bfad8045d85a470935050505090565b5f7fa16a46d94261c7517cc8ff89f61c0ce93598e3c849801011dee649a6a557d10081615a59613ac3565b805190915015615a7157805160209091012092915050565b60018201548015615a05579392505050565b5f63ffffffff821115613681576040517f6dfcc6500000000000000000000000000000000000000000000000000000000081526020600482015260248101839052604401611373565b828054828255905f5260205f20908101928215615b44579160200282015b82811115615b4457825182547fffffffffffffffffffffffff00000000000000000000000000000000000000001673ffffffffffffffffffffffffffffffffffffffff909116178255602090920191600190910190615aea565b50613681929150615bd9565b828054828255905f5260205f20908101928215615b44579160200282015b82811115615b44578251825591602001919060010190615b6e565b828054828255905f5260205f20908101928215615bcd579160200282015b82811115615bcd5782518290615bbd9082616d13565b5091602001919060010190615ba7565b50613681929150615bed565b5b80821115613681575f8155600101615bda565b80821115613681575f615c008282615c09565b50600101615bed565b508054615c159061691e565b5f825580601f10615c24575050565b601f0160209004905f5260205f2090810190610efc9190615bd9565b5f60208284031215615c50575f80fd5b81357fffffffff0000000000000000000000000000000000000000000000000000000081168114612395575f80fd5b5f60208284031215615c8f575f80fd5b5035919050565b5f81518084528060208401602086015e5f6020828601015260207fffffffffffffffffffffffffffffffffffffffffffffffffffffffffffffffe0601f83011685010191505092915050565b602081525f6123956020830184615c96565b73ffffffffffffffffffffffffffffffffffffffff81168114610efc575f80fd5b7f4e487b71000000000000000000000000000000000000000000000000000000005f52604160045260245ffd5b604051601f82017fffffffffffffffffffffffffffffffffffffffffffffffffffffffffffffffe016810167ffffffffffffffff81118282101715615d8957615d89615d15565b604052919050565b5f67ffffffffffffffff821115615daa57615daa615d15565b50601f017fffffffffffffffffffffffffffffffffffffffffffffffffffffffffffffffe01660200190565b5f615de8615de384615d91565b615d42565b9050828152838383011115615dfb575f80fd5b828260208301375f602084830101529392505050565b5f82601f830112615e20575f80fd5b61239583833560208501615dd6565b5f805f8060808587031215615e42575f80fd5b8435615e4d81615cf4565b93506020850135615e5d81615cf4565b925060408501359150606085013567ffffffffffffffff811115615e7f575f80fd5b615e8b87828801615e11565b91505092959194509250565b5f67ffffffffffffffff821115615eb057615eb0615d15565b5060051b60200190565b5f82601f830112615ec9575f80fd5b8135615ed7615de382615e97565b8082825260208201915060208360051b860101925085831115615ef8575f80fd5b602085015b83811015615f1e578035615f1081615cf4565b835260209283019201615efd565b5095945050505050565b5f82601f830112615f37575f80fd5b8135615f45615de382615e97565b8082825260208201915060208360051b860101925085831115615f66575f80fd5b602085015b83811015615f1e578035835260209283019201615f6b565b5f82601f830112615f92575f80fd5b8135615fa0615de382615e97565b8082825260208201915060208360051b860101925085831115615fc1575f80fd5b602085015b83811015615f1e57803567ffffffffffffffff811115615fe4575f80fd5b615ff3886020838a0101615e11565b84525060209283019201615fc6565b5f805f8060808587031215616015575f80fd5b843567ffffffffffffffff81111561602b575f80fd5b61603787828801615eba565b945050602085013567ffffffffffffffff811115616053575f80fd5b61605f87828801615f28565b935050604085013567ffffffffffffffff81111561607b575f80fd5b61608787828801615f83565b949793965093946060013593505050565b5f8151808452602084019350602083015f5b828110156160de57815173ffffffffffffffffffffffffffffffffffffffff168652602095860195909101906001016160aa565b5093949350505050565b5f8151808452602084019350602083015f5b828110156160de5781518652602095860195909101906001016160fa565b5f82825180855260208501945060208160051b830101602085015f5b83811015616184577fffffffffffffffffffffffffffffffffffffffffffffffffffffffffffffffe085840301885261616e838351615c96565b6020988901989093509190910190600101616134565b50909695505050505050565b608081525f6161a26080830187616098565b82810360208401526161b481876160e8565b905082810360408401526161c88186616118565b91505082606083015295945050505050565b85815260a060208201525f6161f260a0830187616098565b828103604084015261620481876160e8565b905082810360608401526162188186616118565b9150508260808301529695505050505050565b7f4e487b71000000000000000000000000000000000000000000000000000000005f52602160045260245ffd5b6008811061628d577f4e487b71000000000000000000000000000000000000000000000000000000005f52602160045260245ffd5b9052565b60208101610ee58284616258565b5f80604083850312156162b0575f80fd5b8235915060208301356162c281615cf4565b809150509250929050565b5f80604083850312156162de575f80fd5b82356162e981615cf4565b915060208301356162c281615cf4565b5f806040838503121561630a575f80fd5b823561631581615cf4565b9150602083013567ffffffffffffffff811115616330575f80fd5b61633c85828601615e11565b9150509250929050565b803560ff81168114611ba4575f80fd5b5f8060408385031215616367575f80fd5b8235915061637760208401616346565b90509250929050565b5f8083601f840112616390575f80fd5b50813567ffffffffffffffff8111156163a7575f80fd5b6020830191508360208285010111156163be575f80fd5b9250929050565b5f805f805f805f60c0888a0312156163db575f80fd5b873596506163eb60208901616346565b955060408801356163fb81615cf4565b9450606088013567ffffffffffffffff811115616416575f80fd5b6164228a828b01616380565b909550935050608088013567ffffffffffffffff811115616441575f80fd5b61644d8a828b01615e11565b92505060a088013567ffffffffffffffff811115616469575f80fd5b6164758a828b01615e11565b91505092959891949750929550565b5f805f805f60808688031215616498575f80fd5b853594506164a860208701616346565b9350604086013567ffffffffffffffff8111156164c3575f80fd5b6164cf88828901616380565b909450925050606086013567ffffffffffffffff8111156164ee575f80fd5b6164fa88828901615e11565b9150509295509295909350565b65ffffffffffff81168114610efc575f80fd5b5f6020828403121561652a575f80fd5b813561239581616507565b5f805f8060608587031215616548575f80fd5b8435935061655860208601616346565b9250604085013567ffffffffffffffff811115616573575f80fd5b61657f87828801616380565b95989497509550505050565b5f805f806080858703121561659e575f80fd5b843567ffffffffffffffff8111156165b4575f80fd5b6165c087828801615eba565b945050602085013567ffffffffffffffff8111156165dc575f80fd5b6165e887828801615f28565b935050604085013567ffffffffffffffff811115616604575f80fd5b61661087828801615f83565b925050606085013567ffffffffffffffff81111561662c575f80fd5b8501601f8101871361663c575f80fd5b615e8b87823560208401615dd6565b5f6020828403121561665b575f80fd5b813561239581615cf4565b7fff000000000000000000000000000000000000000000000000000000000000008816815260e060208201525f6166a060e0830189615c96565b82810360408401526166b28189615c96565b905086606084015273ffffffffffffffffffffffffffffffffffffffff861660808401528460a084015282810360c08401526166ee81856160e8565b9a9950505050505050505050565b5f805f806080858703121561670f575f80fd5b8435935061671f60208601616346565b9250604085013561672f81615cf4565b9150606085013567ffffffffffffffff811115615e7f575f80fd5b5f805f6060848603121561675c575f80fd5b833561676781615cf4565b925060208401359150604084013567ffffffffffffffff811115616789575f80fd5b61679586828701615e11565b9150509250925092565b5f805f805f60a086880312156167b3575f80fd5b85356167be81615cf4565b945060208601356167ce81615cf4565b9350604086013567ffffffffffffffff8111156167e9575f80fd5b6167f588828901615f28565b935050606086013567ffffffffffffffff811115616811575f80fd5b61681d88828901615f28565b925050608086013567ffffffffffffffff8111156164ee575f80fd5b5f805f806060858703121561684c575f80fd5b843561685781615cf4565b935060208501359250604085013567ffffffffffffffff811115616573575f80fd5b5f60208284031215616889575f80fd5b813563ffffffff81168114612395575f80fd5b5f80604083850312156168ad575f80fd5b82356168b881615cf4565b946020939093013593505050565b5f805f805f60a086880312156168da575f80fd5b85356168e581615cf4565b945060208601356168f581615cf4565b93506040860135925060608601359150608086013567ffffffffffffffff8111156164ee575f80fd5b600181811c9082168061693257607f821691505b602082108103616969577f4e487b71000000000000000000000000000000000000000000000000000000005f52602260045260245ffd5b50919050565b7f4e487b71000000000000000000000000000000000000000000000000000000005f52603260045260245ffd5b7f4e487b71000000000000000000000000000000000000000000000000000000005f52601260045260245ffd5b7f4e487b71000000000000000000000000000000000000000000000000000000005f52601160045260245ffd5b5f65ffffffffffff831680616a0d57616a0d61699c565b8065ffffffffffff84160491505092915050565b5f63ffffffff831680616a3657616a3661699c565b8063ffffffff84160491505092915050565b5f60208284031215616a58575f80fd5b815167ffffffffffffffff811115616a6e575f80fd5b8201601f81018413616a7e575f80fd5b8051616a8c615de382615d91565b818152856020838501011115616aa0575f80fd5b8160208401602083015e5f91810160200191909152949350505050565b818382375f9101908152919050565b81810381811115610ee557610ee56169c9565b65ffffffffffff8281168282160390811115610ee557610ee56169c9565b5f60208284031215616b0d575f80fd5b815161239581616507565b65ffffffffffff8181168382160190811115610ee557610ee56169c9565b5f60208284031215616b46575f80fd5b5051919050565b8082028115828204841417610ee557610ee56169c9565b5f82616b7257616b7261699c565b500490565b83815260608101616b8b6020830185616258565b826040830152949350505050565b5f60208284031215616ba9575f80fd5b81518015158114612395575f80fd5b84815260ff84166020820152826040820152608060608201525f6118b56080830184615c96565b85815260ff8516602082015283604082015260a060608201525f616c0660a0830185615c96565b82810360808401526120788185615c96565b80820180821115610ee557610ee56169c9565b60a081525f616c3d60a0830188616098565b8281036020840152616c4f81886160e8565b90508281036040840152616c638187616118565b60608401959095525050608001529392505050565b60c081525f616c8a60c0830189616098565b8281036020840152616c9c81896160e8565b90508281036040840152616cb08188616118565b60608401969096525050608081019290925260a0909101529392505050565b601f82111561313257805f5260205f20601f840160051c81016020851015616cf45750805b601f840160051c820191505b81811015612ef3575f8155600101616d00565b815167ffffffffffffffff811115616d2d57616d2d615d15565b616d4181616d3b845461691e565b84616ccf565b6020601f821160018114616d92575f8315616d5c5750848201515b7fffffffffffffffffffffffffffffffffffffffffffffffffffffffffffffffff600385901b1c1916600184901b178455612ef3565b5f848152602081207fffffffffffffffffffffffffffffffffffffffffffffffffffffffffffffffe08516915b82811015616ddf5787850151825560209485019460019092019101616dbf565b5084821015616e1b57868401517fffffffffffffffffffffffffffffffffffffffffffffffffffffffffffffffff600387901b60f8161c191681555b50505050600190811b01905550565b828152604060208201525f6123926040830184615c96565b5f82518060208501845e5f920191825250919050565b60ff8181168382160190811115610ee557610ee56169c9565b6001815b6001841115613f8e57808504811115616e9057616e906169c9565b6001841615616e9e57908102905b60019390931c928002616e75565b5f82616eba57506001610ee5565b81616ec657505f610ee5565b8160018114616edc5760028114616ee657616f02565b6001915050610ee5565b60ff841115616ef757616ef76169c9565b50506001821b610ee5565b5060208310610133831016604e8410600b8410161715616f25575081810a610ee5565b616f507fffffffffffffffffffffffffffffffffffffffffffffffffffffffffffffffff8484616e71565b807fffffffffffffffffffffffffffffffffffffffffffffffffffffffffffffffff04821115616f8257616f826169c9565b029392505050565b5f61239560ff841683616eac565b89815273ffffffffffffffffffffffffffffffffffffffff8916602082015261012060408201525f616fce61012083018a616098565b8281036060840152616fe0818a6160e8565b9050828103608084015280885180835260208301915060208160051b84010160208b015f5b83811015617055577fffffffffffffffffffffffffffffffffffffffffffffffffffffffffffffffe086840301855261703f838351615c96565b6020958601959093509190910190600101617005565b505085810360a0870152617069818b616118565b93505050508560c08401528460e084015282810361010084015261708d8185615c96565b9c9b50505050505050505050505056fea164736f6c634300081a000a","linkReferences":{}},"methodIdentifiers":{"BALLOT_TYPEHASH()":"deaaa7cc","CLOCK_MODE()":"4bf5d7e9","COUNTING_MODE()":"dd4e2ba5","EXTENDED_BALLOT_TYPEHASH()":"2fe3e261","UPGRADE_INTERFACE_VERSION()":"ad3cb1cc","cancel(address[],uint256[],bytes[],bytes32)":"452115d6","cancel(uint256)":"40e58ee5","castVote(uint256,uint8)":"56781388","castVoteBySig(uint256,uint8,address,bytes)":"8ff262e3","castVoteWithReason(uint256,uint8,string)":"7b3c71d3","castVoteWithReasonAndParams(uint256,uint8,string,bytes)":"5f398a14","castVoteWithReasonAndParamsBySig(uint256,uint8,address,string,bytes,bytes)":"5b8d0e0d","clock()":"91ddadf4","eip712Domain()":"84b0196e","execute(address[],uint256[],bytes[],bytes32)":"2656227d","execute(uint256)":"fe0d94c1","getVotes(address,uint256)":"eb9019d4","getVotesWithParams(address,uint256,bytes)":"9a802a6d","hasVoted(uint256,address)":"43859632","hashProposal(address[],uint256[],bytes[],bytes32)":"c59057e4","initialize(address,address)":"485cc955","name()":"06fdde03","nonces(address)":"7ecebe00","onERC1155BatchReceived(address,address,uint256[],uint256[],bytes)":"bc197c81","onERC1155Received(address,address,uint256,uint256,bytes)":"f23a6e61","onERC721Received(address,address,uint256,bytes)":"150b7a02","owner()":"8da5cb5b","proposalCount()":"da35c664","proposalDeadline(uint256)":"c01f9e37","proposalDetails(uint256)":"16e9eaec","proposalDetailsAt(uint256)":"2e82db94","proposalEta(uint256)":"ab58fb8e","proposalNeedsQueuing(uint256)":"a9a95294","proposalProposer(uint256)":"143489d0","proposalSnapshot(uint256)":"2d63f693","proposalThreshold()":"b58131b0","proposalVotes(uint256)":"544ffc9c","propose(address[],uint256[],bytes[],string)":"7d5e81e2","proxiableUUID()":"52d1902d","queue(address[],uint256[],bytes[],bytes32)":"160cbed7","queue(uint256)":"ddf0b009","quorum(uint256)":"f8ce560a","quorumDenominator()":"97c3d334","quorumNumerator()":"a7713a70","quorumNumerator(uint256)":"60c4247f","relay(address,uint256,bytes)":"c28bc2fa","renounceOwnership()":"715018a6","setProposalThreshold(uint256)":"ece40cc1","setVotingDelay(uint48)":"79051887","setVotingPeriod(uint32)":"e540d01d","state(uint256)":"3e4f49e6","supportsInterface(bytes4)":"01ffc9a7","timelock()":"d33219b4","token()":"fc0c546a","transferOwnership(address)":"f2fde38b","updateQuorumNumerator(uint256)":"06f3f9e6","updateTimelock(address)":"a890c910","upgradeToAndCall(address,bytes)":"4f1ef286","version()":"54fd4d50","votingDelay()":"3932abb1","votingPeriod()":"02a251a3"},"storageLayout":{"storage":[],"types":{}},"id":203}